{
  "_format": "hh-sol-artifact-1",
  "contractName": "Vote",
  "sourceName": "contracts/Vote.sol",
  "abi": [
    {
      "inputs": [],
      "stateMutability": "nonpayable",
      "type": "constructor"
    },
    {
      "inputs": [
        {
          "internalType": "string",
          "name": "question",
          "type": "string"
        },
        {
          "internalType": "string",
          "name": "category",
          "type": "string"
        },
        {
          "internalType": "uint256",
          "name": "expiatedAt",
          "type": "uint256"
        }
      ],
      "name": "createProposal",
      "outputs": [
        {
          "internalType": "uint256",
          "name": "",
          "type": "uint256"
        }
      ],
      "stateMutability": "nonpayable",
      "type": "function"
    },
    {
      "inputs": [],
      "name": "getAllProposals",
      "outputs": [
        {
          "components": [
            {
              "internalType": "uint256",
              "name": "id",
              "type": "uint256"
            },
            {
              "internalType": "string",
              "name": "question",
              "type": "string"
            },
            {
              "internalType": "string",
              "name": "category",
              "type": "string"
            },
            {
              "internalType": "uint256",
              "name": "expiatedAt",
              "type": "uint256"
            },
            {
              "internalType": "address",
              "name": "creator",
              "type": "address"
            },
            {
              "internalType": "uint256",
              "name": "yesVotesCount",
              "type": "uint256"
            },
            {
              "internalType": "uint256",
              "name": "noVotesCount",
              "type": "uint256"
            },
            {
              "internalType": "bool",
              "name": "voteAnswer",
              "type": "bool"
            },
            {
              "internalType": "bool",
              "name": "hasVoted",
              "type": "bool"
            }
          ],
          "internalType": "struct Vote.ProposalView[]",
          "name": "",
          "type": "tuple[]"
        }
      ],
      "stateMutability": "view",
      "type": "function"
    },
    {
      "inputs": [
        {
          "internalType": "uint256",
          "name": "proposalId",
          "type": "uint256"
        },
        {
          "internalType": "address",
          "name": "voter",
          "type": "address"
        }
      ],
      "name": "getProposal",
      "outputs": [
        {
          "components": [
            {
              "internalType": "uint256",
              "name": "id",
              "type": "uint256"
            },
            {
              "internalType": "string",
              "name": "question",
              "type": "string"
            },
            {
              "internalType": "string",
              "name": "category",
              "type": "string"
            },
            {
              "internalType": "uint256",
              "name": "expiatedAt",
              "type": "uint256"
            },
            {
              "internalType": "address",
              "name": "creator",
              "type": "address"
            },
            {
              "internalType": "uint256",
              "name": "yesVotesCount",
              "type": "uint256"
            },
            {
              "internalType": "uint256",
              "name": "noVotesCount",
              "type": "uint256"
            },
            {
              "internalType": "bool",
              "name": "voteAnswer",
              "type": "bool"
            },
            {
              "internalType": "bool",
              "name": "hasVoted",
              "type": "bool"
            }
          ],
          "internalType": "struct Vote.ProposalView",
          "name": "",
          "type": "tuple"
        }
      ],
      "stateMutability": "view",
      "type": "function"
    },
    {
      "inputs": [],
      "name": "getProposalCount",
      "outputs": [
        {
          "internalType": "uint256",
          "name": "",
          "type": "uint256"
        }
      ],
      "stateMutability": "view",
      "type": "function"
    },
    {
      "inputs": [
        {
          "internalType": "uint256",
          "name": "proposalId",
          "type": "uint256"
        },
        {
          "internalType": "address",
          "name": "voter",
          "type": "address"
        }
      ],
      "name": "getVote",
      "outputs": [
        {
          "internalType": "bool",
          "name": "",
          "type": "bool"
        },
        {
          "internalType": "bool",
          "name": "",
          "type": "bool"
        }
      ],
      "stateMutability": "view",
      "type": "function"
    },
    {
      "inputs": [
        {
          "internalType": "uint256",
          "name": "proposalId",
          "type": "uint256"
        },
        {
          "internalType": "address",
          "name": "voter",
          "type": "address"
        }
      ],
      "name": "hasVoted",
      "outputs": [
        {
          "internalType": "bool",
          "name": "",
          "type": "bool"
        }
      ],
      "stateMutability": "view",
      "type": "function"
    },
    {
      "inputs": [],
      "name": "proposalCount",
      "outputs": [
        {
          "internalType": "uint256",
          "name": "",
          "type": "uint256"
        }
      ],
      "stateMutability": "view",
      "type": "function"
    },
    {
      "inputs": [
        {
          "internalType": "uint256",
          "name": "",
          "type": "uint256"
        }
      ],
      "name": "proposals",
      "outputs": [
        {
          "internalType": "string",
          "name": "question",
          "type": "string"
        },
        {
          "internalType": "string",
          "name": "category",
          "type": "string"
        },
        {
          "internalType": "uint256",
          "name": "expiatedAt",
          "type": "uint256"
        },
        {
          "internalType": "address",
          "name": "creator",
          "type": "address"
        },
        {
          "internalType": "uint256",
          "name": "yesVotesCount",
          "type": "uint256"
        },
        {
          "internalType": "uint256",
          "name": "noVotesCount",
          "type": "uint256"
        }
      ],
      "stateMutability": "view",
      "type": "function"
    },
    {
      "inputs": [
        {
          "internalType": "uint256",
          "name": "proposalId",
          "type": "uint256"
        },
        {
          "internalType": "bool",
          "name": "voteYes",
          "type": "bool"
        }
      ],
      "name": "vote",
      "outputs": [],
      "stateMutability": "nonpayable",
      "type": "function"
    }
  ],
  "bytecode": "0x6080604052348015600f57600080fd5b506119c78061001f6000396000f3fe608060405234801561001057600080fd5b50600436106100935760003560e01c8063bc3f931f11610066578063bc3f931f1461015d578063c08cc02d1461018e578063c9d27afe146101ac578063cceb68f5146101c8578063da35c664146101e657610093565b8063013cf08b146100985780630ce0ebf4146100cd57806343859632146100fd578063a72b63251461012d575b600080fd5b6100b260048036038101906100ad9190610c3a565b610204565b6040516100c496959493929190610d47565b60405180910390f35b6100e760048036038101906100e29190610eeb565b610370565b6040516100f49190610f76565b60405180910390f35b61011760048036038101906101129190610fbd565b610480565b6040516101249190611018565b60405180910390f35b61014760048036038101906101429190610fbd565b61058a565b6040516101549190611176565b60405180910390f35b61017760048036038101906101729190610fbd565b6107ea565b604051610185929190611198565b60405180910390f35b6101966108f1565b6040516101a39190610f76565b60405180910390f35b6101c660048036038101906101c191906111ed565b6108fb565b005b6101d0610ade565b6040516101dd91906113bb565b60405180910390f35b6101ee610b84565b6040516101fb9190610f76565b60405180910390f35b60006020528060005260406000206000915090508060000180546102279061140c565b80601f01602080910402602001604051908101604052809291908181526020018280546102539061140c565b80156102a05780601f10610275576101008083540402835291602001916102a0565b820191906000526020600020905b81548152906001019060200180831161028357829003601f168201915b5050505050908060010180546102b59061140c565b80601f01602080910402602001604051908101604052809291908181526020018280546102e19061140c565b801561032e5780601f106103035761010080835404028352916020019161032e565b820191906000526020600020905b81548152906001019060200180831161031157829003601f168201915b5050505050908060020154908060030160009054906101000a900473ffffffffffffffffffffffffffffffffffffffff16908060050154908060070154905086565b60004282116103b4576040517f08c379a00000000000000000000000000000000000000000000000000000000081526004016103ab906114af565b60405180910390fd5b600080600060015481526020019081526020016000209050848160000190816103dd919061167b565b50838160010190816103ef919061167b565b50828160020181905550338160030160006101000a81548173ffffffffffffffffffffffffffffffffffffffff021916908373ffffffffffffffffffffffffffffffffffffffff1602179055506000816005018190555060008160070181905550600160008154809291906104639061177c565b91905055506001805461047691906117c4565b9150509392505050565b600060015483106104c6576040517f08c379a00000000000000000000000000000000000000000000000000000000081526004016104bd90611844565b60405180910390fd5b600080600085815260200190815260200160002090508060040160008473ffffffffffffffffffffffffffffffffffffffff1673ffffffffffffffffffffffffffffffffffffffff16815260200190815260200160002060009054906101000a900460ff168061058157508060060160008473ffffffffffffffffffffffffffffffffffffffff1673ffffffffffffffffffffffffffffffffffffffff16815260200190815260200160002060009054906101000a900460ff165b91505092915050565b610592610b8a565b60015483106105d6576040517f08c379a00000000000000000000000000000000000000000000000000000000081526004016105cd90611844565b60405180910390fd5b60008060008581526020019081526020016000209050600081600501549050600082600701549050600061060a8787610480565b905060008115610643576000806106218a8a6107ea565b9150915081156106345760019250610640565b801561063f57600092505b5b50505b6040518061012001604052808981526020018660000180546106649061140c565b80601f01602080910402602001604051908101604052809291908181526020018280546106909061140c565b80156106dd5780601f106106b2576101008083540402835291602001916106dd565b820191906000526020600020905b8154815290600101906020018083116106c057829003601f168201915b505050505081526020018660010180546106f69061140c565b80601f01602080910402602001604051908101604052809291908181526020018280546107229061140c565b801561076f5780601f106107445761010080835404028352916020019161076f565b820191906000526020600020905b81548152906001019060200180831161075257829003601f168201915b50505050508152602001866002015481526020018660030160009054906101000a900473ffffffffffffffffffffffffffffffffffffffff1673ffffffffffffffffffffffffffffffffffffffff16815260200185815260200184815260200182151581526020018315158152509550505050505092915050565b6000806001548410610831576040517f08c379a000000000000000000000000000000000000000000000000000000000815260040161082890611844565b60405180910390fd5b600080600086815260200190815260200160002090508060040160008573ffffffffffffffffffffffffffffffffffffffff1673ffffffffffffffffffffffffffffffffffffffff16815260200190815260200160002060009054906101000a900460ff168160060160008673ffffffffffffffffffffffffffffffffffffffff1673ffffffffffffffffffffffffffffffffffffffff16815260200190815260200160002060009054906101000a900460ff1692509250509250929050565b6000600154905090565b600154821061093f576040517f08c379a000000000000000000000000000000000000000000000000000000000815260040161093690611844565b60405180910390fd5b600080600084815260200190815260200160002090508060020154421061099b576040517f08c379a0000000000000000000000000000000000000000000000000000000008152600401610992906118b0565b60405180910390fd5b6109a58333610480565b156109e5576040517f08c379a00000000000000000000000000000000000000000000000000000000081526004016109dc90611942565b60405180910390fd5b8115610a645760018160040160003373ffffffffffffffffffffffffffffffffffffffff1673ffffffffffffffffffffffffffffffffffffffff16815260200190815260200160002060006101000a81548160ff021916908315150217905550806005016000815480929190610a5a9061177c565b9190505550610ad9565b60018160060160003373ffffffffffffffffffffffffffffffffffffffff1673ffffffffffffffffffffffffffffffffffffffff16815260200190815260200160002060006101000a81548160ff021916908315150217905550806007016000815480929190610ad39061177c565b91905055505b505050565b6060600060015467ffffffffffffffff811115610afe57610afd610dc0565b5b604051908082528060200260200182016040528015610b3757816020015b610b24610b8a565b815260200190600190039081610b1c5790505b50905060005b600154811015610b7c57610b51813361058a565b828281518110610b6457610b63611962565b5b60200260200101819052508080600101915050610b3d565b508091505090565b60015481565b60405180610120016040528060008152602001606081526020016060815260200160008152602001600073ffffffffffffffffffffffffffffffffffffffff16815260200160008152602001600081526020016000151581526020016000151581525090565b6000604051905090565b600080fd5b600080fd5b6000819050919050565b610c1781610c04565b8114610c2257600080fd5b50565b600081359050610c3481610c0e565b92915050565b600060208284031215610c5057610c4f610bfa565b5b6000610c5e84828501610c25565b91505092915050565b600081519050919050565b600082825260208201905092915050565b60005b83811015610ca1578082015181840152602081019050610c86565b60008484015250505050565b6000601f19601f8301169050919050565b6000610cc982610c67565b610cd38185610c72565b9350610ce3818560208601610c83565b610cec81610cad565b840191505092915050565b610d0081610c04565b82525050565b600073ffffffffffffffffffffffffffffffffffffffff82169050919050565b6000610d3182610d06565b9050919050565b610d4181610d26565b82525050565b600060c0820190508181036000830152610d618189610cbe565b90508181036020830152610d758188610cbe565b9050610d846040830187610cf7565b610d916060830186610d38565b610d9e6080830185610cf7565b610dab60a0830184610cf7565b979650505050505050565b600080fd5b600080fd5b7f4e487b7100000000000000000000000000000000000000000000000000000000600052604160045260246000fd5b610df882610cad565b810181811067ffffffffffffffff82111715610e1757610e16610dc0565b5b80604052505050565b6000610e2a610bf0565b9050610e368282610def565b919050565b600067ffffffffffffffff821115610e5657610e55610dc0565b5b610e5f82610cad565b9050602081019050919050565b82818337600083830152505050565b6000610e8e610e8984610e3b565b610e20565b905082815260208101848484011115610eaa57610ea9610dbb565b5b610eb5848285610e6c565b509392505050565b600082601f830112610ed257610ed1610db6565b5b8135610ee2848260208601610e7b565b91505092915050565b600080600060608486031215610f0457610f03610bfa565b5b600084013567ffffffffffffffff811115610f2257610f21610bff565b5b610f2e86828701610ebd565b935050602084013567ffffffffffffffff811115610f4f57610f4e610bff565b5b610f5b86828701610ebd565b9250506040610f6c86828701610c25565b9150509250925092565b6000602082019050610f8b6000830184610cf7565b92915050565b610f9a81610d26565b8114610fa557600080fd5b50565b600081359050610fb781610f91565b92915050565b60008060408385031215610fd457610fd3610bfa565b5b6000610fe285828601610c25565b9250506020610ff385828601610fa8565b9150509250929050565b60008115159050919050565b61101281610ffd565b82525050565b600060208201905061102d6000830184611009565b92915050565b61103c81610c04565b82525050565b600082825260208201905092915050565b600061105e82610c67565b6110688185611042565b9350611078818560208601610c83565b61108181610cad565b840191505092915050565b61109581610d26565b82525050565b6110a481610ffd565b82525050565b6000610120830160008301516110c36000860182611033565b50602083015184820360208601526110db8282611053565b915050604083015184820360408601526110f58282611053565b915050606083015161110a6060860182611033565b50608083015161111d608086018261108c565b5060a083015161113060a0860182611033565b5060c083015161114360c0860182611033565b5060e083015161115660e086018261109b565b5061010083015161116b61010086018261109b565b508091505092915050565b6000602082019050818103600083015261119081846110aa565b905092915050565b60006040820190506111ad6000830185611009565b6111ba6020830184611009565b9392505050565b6111ca81610ffd565b81146111d557600080fd5b50565b6000813590506111e7816111c1565b92915050565b6000806040838503121561120457611203610bfa565b5b600061121285828601610c25565b9250506020611223858286016111d8565b9150509250929050565b600081519050919050565b600082825260208201905092915050565b6000819050602082019050919050565b6000610120830160008301516112726000860182611033565b506020830151848203602086015261128a8282611053565b915050604083015184820360408601526112a48282611053565b91505060608301516112b96060860182611033565b5060808301516112cc608086018261108c565b5060a08301516112df60a0860182611033565b5060c08301516112f260c0860182611033565b5060e083015161130560e086018261109b565b5061010083015161131a61010086018261109b565b508091505092915050565b60006113318383611259565b905092915050565b6000602082019050919050565b60006113518261122d565b61135b8185611238565b93508360208202850161136d85611249565b8060005b858110156113a9578484038952815161138a8582611325565b945061139583611339565b925060208a01995050600181019050611371565b50829750879550505050505092915050565b600060208201905081810360008301526113d58184611346565b905092915050565b7f4e487b7100000000000000000000000000000000000000000000000000000000600052602260045260246000fd5b6000600282049050600182168061142457607f821691505b602082108103611437576114366113dd565b5b50919050565b7f45787069726174696f6e2074696d65206d75737420626520696e20746865206660008201527f7574757265000000000000000000000000000000000000000000000000000000602082015250565b6000611499602583610c72565b91506114a48261143d565b604082019050919050565b600060208201905081810360008301526114c88161148c565b9050919050565b60008190508160005260206000209050919050565b60006020601f8301049050919050565b600082821b905092915050565b6000600883026115317fffffffffffffffffffffffffffffffffffffffffffffffffffffffffffffffff826114f4565b61153b86836114f4565b95508019841693508086168417925050509392505050565b6000819050919050565b600061157861157361156e84610c04565b611553565b610c04565b9050919050565b6000819050919050565b6115928361155d565b6115a661159e8261157f565b848454611501565b825550505050565b600090565b6115bb6115ae565b6115c6818484611589565b505050565b5b818110156115ea576115df6000826115b3565b6001810190506115cc565b5050565b601f82111561162f57611600816114cf565b611609846114e4565b81016020851015611618578190505b61162c611624856114e4565b8301826115cb565b50505b505050565b600082821c905092915050565b600061165260001984600802611634565b1980831691505092915050565b600061166b8383611641565b9150826002028217905092915050565b61168482610c67565b67ffffffffffffffff81111561169d5761169c610dc0565b5b6116a7825461140c565b6116b28282856115ee565b600060209050601f8311600181146116e557600084156116d3578287015190505b6116dd858261165f565b865550611745565b601f1984166116f3866114cf565b60005b8281101561171b578489015182556001820191506020850194506020810190506116f6565b868310156117385784890151611734601f891682611641565b8355505b6001600288020188555050505b505050505050565b7f4e487b7100000000000000000000000000000000000000000000000000000000600052601160045260246000fd5b600061178782610c04565b91507fffffffffffffffffffffffffffffffffffffffffffffffffffffffffffffffff82036117b9576117b861174d565b5b600182019050919050565b60006117cf82610c04565b91506117da83610c04565b92508282039050818111156117f2576117f161174d565b5b92915050565b7f50726f706f73616c20646f6573206e6f74206578697374000000000000000000600082015250565b600061182e601783610c72565b9150611839826117f8565b602082019050919050565b6000602082019050818103600083015261185d81611821565b9050919050565b7f566f74696e6720706572696f6420686173206578706972656400000000000000600082015250565b600061189a601983610c72565b91506118a582611864565b602082019050919050565b600060208201905081810360008301526118c98161188d565b9050919050565b7f596f75206861766520616c726561647920766f746564206f6e2074686973207060008201527f726f706f73616c00000000000000000000000000000000000000000000000000602082015250565b600061192c602783610c72565b9150611937826118d0565b604082019050919050565b6000602082019050818103600083015261195b8161191f565b9050919050565b7f4e487b7100000000000000000000000000000000000000000000000000000000600052603260045260246000fdfea264697066735822122043e55e34bbd770d3dc402351e53347d7ccea23f4a86a8ca5592871a078f0f68964736f6c634300081c0033",
  "linkReferences": {},
  "deployedLinkReferences": {}
}